:020000040800F2
:10000000B1AA010000000000000000000000000094
:1000100000000000000000000000000000000000E0
:1000200000000000000000000000000000000000D0
:1000300000000000000000000000000000000000C0
:1000400000000000000000000000000000000000B0
:1000500000000000000000000000000000000000A0
:100060000000000000000000000000000000000090
:100070000000000000000000000000000000000080
:100080000000000000000000000000000000000070
:100090000000000000000000000000000000000060
:1000A0000000000000000000000000000000000050
:1000B0000000000000000000000000000000000040
:1000C0000000000000000000000000000000000030
:1000D0000000000000000000000000000000000020
:1000E0000000000000000000000000000000000010
:1000F0000000000000000000000000000000000000
:1001000000000000000000000000000000000000EF
:1001100000000000000000000000000000000000DF
:1001200000000000000000000000000000000000CF
:1001300000000000000000000000000000000000BF
:1001400000000000000000000000000000000000AF
:100150000000000000000000000000007370043088
:10016000170500001305C5FF8545F605637BB5003F
:1001700089816378B500170500001305C5002E9529
:1001800002859302002073A0027D970200009382F3
:1001900062E773907230971200009382624273900C
:1001A000C27E73E0C07E971200009382A2397390E2
:1001B0005230970100189381616B17810018130169
:1001C00061E4172500001305A558970500189385CD
:1001D00065E317060018130666EA63FAC500832272
:1001E000050023A0550011059105E3EAC5FE17059A
:1001F00000181305A5E89385818A6377B50023204D
:1002000005001105E36DB5FE73F00232171500000D
:1002100013052553EF10804FEF100056014581451F
:10022000EF00C07C6F10204F01A073E0023282808B
:0802300073F00232828000002D
:1002400000000000000000000000000000000000AE
:100250000000000808080808080800001818000036
:1002600000486C24120000000000000000000000A4
:100270000000002424247F1212127F1212120000A8
:100280000000081C2A2A0A0C1828282A2A1C0808F8
:1002900000000022251515152A5854545422000038
:1002A0000000000C1212120A76252911916E00002E
:1002B000000606040300000000000000000000002B
:1002C00000402010100808080808081010204000FE
:1002D0000002040808101010101010080804020092
:1002E0000000000008086B1C1C6B080800000000E0
:1002F00000000000080808087F080808080000003F
:1003000000000000000000000000000006060403DA
:100310000000000000000000FE00000000000000DF
:1003200000000000000000000000000006060000C1
:100330000000804040202010100808040402020041
:100340000000001824424242424242422418000067
:10035000000000080E08080808080808083E000009
:100360000000003C4242422020100804427E00006F
:100370000000003C4242201820404042221C000065
:10038000000000203028242422227E202078000033
:100390000000007E0202021A26404042221C000099
:1003A000000000382402021A2642424224180000AB
:1003B0000000007E2222101008080808080800002B
:1003C0000000003C4242422418244242423C0000C9
:1003D000000000182442424264584040241C00009F
:1003E00000000000000018180000000018180000AD
:1003F00000000000000000080000000000080804E1
:1004000000000040201008040204081020400000F2
:100410000000000000007F0000007F0000000000DE
:100420000000000204081020402010080402000010
:100430000000003C42424640201010001818000006
:100440000000001C225A555555552D42221C000013
:100450000000000808181414243C224242E700005F
:100460000000001F2222221E22424242221F0000C0
:100470000000007C4242010101010142221C0000F7
:100480000000001F2242424242424242221F00001C
:100490000000003F4212121E12120242423F0000B0
:1004A0000000003F4212121E121202020207000058
:1004B0000000003C2222010101712122221C0000C7
:1004C000000000E7424242427E42424242E70000D0
:1004D0000000003E0808080808080808083E000058
:1004E0000000007C10101010101010101010110FD0
:1004F0000000007722120A0E0A1212222277000050
:10050000000000070202020202020202427F000013
:1005100000000077363636362A2A2A2A2A6B00004F
:10052000000000E346464A4A5252526262470000C7
:100530000000001C2241414141414141221C000078
:100540000000003F424242423E0202020207000017
:100550000000001C2241414141414D53321C6000CA
:100560000000003F4242423E1212222242C70000D7
:100570000000007C4242020418204042423E00003B
:100580000000007F4908080808080808081C000047
:10059000000000E74242424242424242423C0000E6
:1005A000000000E742422224241414180808000026
:1005B0000000006B49494949555536222222000066
:1005C000000000E7422424181818242442E7000001
:1005D000000000772222141408080808081C0000F4
:1005E0000000007E2120101008040442423F000059
:1005F00000780808080808080808080808087800AB
:1006000000000202040408080810102020204040C6
:10061000001E1010101010101010101010101E00DE
:10062000003844000000000000000000000000004E
:10063000000000000000000000000000000000FFBB
:10064000000608000000000000000000000000009C
:10065000000000000000003C4278444242FC0000E0
:10066000000000030202021A26424242261A00003B
:10067000000000000000003844020202443800007C
:1006800000000060404040784442424264D800008C
:10069000000000000000003C427E0202423C0000DC
:1006A000000000F08808087E08080808083E0000DE
:1006B000000000000000007C22221C023C42423C60
:1006C000000000030202023A4642424242E70000B2
:1006D0000000000C0C00000E08080808083E00008E
:1006E0000000003030000038202020202020221E72
:1006F0000000000302020272120A161222770000A2
:100700000000000E0808080808080808083E000055
:10071000000000000000007F9292929292B70000C9
:10072000000000000000003B4642424242E7000059
:10073000000000000000003C42424242423C0000F7
:10074000000000000000001B26424242221E020759
:10075000000000000000007844424242447840E03B
:1007600000000000000000774C040404041F000097
:10077000000000000000007C42023C40423E0000BD
:10078000000000000008083E0808080808300000C3
:1007900000000000000000634242424262DC0000B0
:1007A00000000000000000E74224241408080000B4
:1007B00000000000000000EB4949555522220000CE
:1007C000000000000000007624181818246E0000B5
:1007D00000000000000000E7422424141808080765
:1007E000000000000000007E22100808447E000087
:1007F00000C0202020202010202020202020C00009
:1008000010101010101010101010101010101010E8
:100810000006080808080810080808080808060064
:100820000C32C200000000000000000000000000C8
:1008300048656C6C6F20576F726C6421000000007B
:100840006E6D690A00000000747261700A00000099
:100850000A50726F6772616D2068617320657869F4
:10086000746564207769746820636F64653A00007A
:1008700030780000741F0008282000087E1F000840
:10088000282000081A200008282000087E1F0008E1
:10089000741F0008741F00081A2000087E1F00083B
:1008A0005A1F00085A1F00085A1F0008821F00081C
:1008B0005C2400085C240008742400085624000806
:1008C0005624000802250008742400085624000855
:1008D0000225000856240008742400085424000847
:1008E00054240008542400080225000800010202D4
:1008F00003030303040404040404040405050505B8
:100900000505050505050505050505050606060693
:100910000606060606060606060606060606060677
:100920000606060606060606060606060707070763
:100930000707070707070707070707070707070747
:100940000707070707070707070707070707070737
:100950000707070707070707070707070707070727
:100960000707070707070707070707070808080813
:1009700008080808080808080808080808080808F7
:1009800008080808080808080808080808080808E7
:1009900008080808080808080808080808080808D7
:1009A00008080808080808080808080808080808C7
:1009B00008080808080808080808080808080808B7
:1009C00008080808080808080808080808080808A7
:1009D0000808080808080808080808080808080897
:1009E000080808080808080808080808411106C689
:1009F00022C426C2EF00E07B014525213714000800
:100A0000C164B70700209386F4FF13060483814571
:100A1000014523AC0706EF00C06DFD4613060483B5
:100A2000C1450145EF00E06C9386F4811306048311
:100A3000930500020145EF00C06B9306F07F13069B
:100A40000483930500030145EF00A06A93860480A8
:100A500013060483930500040145EF008069EF004D
:100A6000407601E913052003EF008076EF00607502
:100A70007DD501457D263920B2402244924401456E
:100A8000410182806545930580025146FD46EF0095
:100A9000404D13052003D1451306A0059306C0035E
:100AA0003707010013070780EF00C04697F2FF17D2
:100AB000938242551305F0059305000216869306AE
:100AC000007EEF000063411122C42A8437150140E3
:100AD0009145130505C006C6EF005004894537351A
:100AE0000140EF00300D7DD9A28537350140EF0080
:100AF000F00A854537350140EF00D00B7DD93735F9
:100B00000140EF00F0092244B24037150140914501
:100B1000130505C041016F003000411122C42A8431
:100B200037150140130505C0854506C6EF00C07E98
:100B300022852244B240410179B7411122C42A845E
:100B4000371501408545130505C006C6EF00C07C7A
:100B5000135584001375F50FBD371375F40F224438
:100B6000B24041018DB7411122C42A84371501409A
:100B7000130505C0854506C6EF00407A228522444C
:100B8000B240410189B701114EC6AA891305A002DE
:100B900006CE22CC26CA4AC8AE8432893684E137D2
:100BA00013851900593F13051900413F1305B00281
:100BB0005D3F1385A40151371305A401BD3F624475
:100BC000F240D2444249B2491305C002056161BFF7
:100BD0003715014079719145130505C006D6EF0020
:100BE000A0734800EF00E075930740103EC28D47A8
:100BF0003ECC930700203EC84C00C147373501402A
:100C00003ECE02C402C602CAEF0040759D4537358C
:100C10000140EF00607937350140EF008077B25036
:100C20004561828041111305206006C622C4EF0091
:100C3000C06F13053060EF00406F13050060EF00D8
:100C4000C06E1305C060EF00406E371401401305FD
:100C500004809306000E0D46E145EF00A0611305E8
:100C600004C091460D46C145EF00C06095378D46E2
:100C70000D46130504C0C145EF00C05F130504C055
:100C80008D45EF00A0698945130504C0EF00006998
:100C90001305800C352B8945130504C0EF00C06790
:100CA00051453D234545C135130540061523130520
:100CB0001002553D1305100B7D351545B93D130543
:100CC000A003A13D1305A003893D1305200B613D41
:100CD0001545A1351305A00389351305A003353D3E
:100CE0001305300B493515450D3D1305A00335356A
:100CF0001305A0031D3515450D351305A003313D22
:100D00001305A003193D1305400BB13D0D453135C9
:100D10001305000C893D1305200601350945F53BF7
:100D20001145E53B1305100C3D3D1305000CF53353
:100D30001305200C0D3D3545CD330145F93B130519
:100D4000300C15351305D008C93B1305A006F13347
:100D50001305400C093D1305D008C1331305E00EFF
:100D60006D3B1305500C01353945453B1305000E0D
:100D7000DD3B41455D3339454D330945793B0D45F3
:100D8000693B3945593B1D45493B094579331D456B
:100D90006933294559334945493313057002B53B39
:100DA000130570039D3B01458D3B3545BD333945EA
:100DB000AD3341459D331305100E75334145B13BAD
:100DC0003945A13B0D45913B0D45813B3D45B13337
:100DD0001945A13309459133214581332945353BD7
:100DE0004D45253B130560020D3B1305600335336C
:100DF0000145253335451533394505334145313BEB
:100E00001305A0038D331545093B13056003A13B72
:100E10001305800719332244B240130590024101A3
:100E200099B341114AC09306F0042A891306F009C8
:100E30008145014526C206C622C49304000AA13397
:100E4000130400054A857D14CD396DFCFD14EDF8C1
:100E5000B24022449244024941018280411122C49D
:100E6000AE8632842A8606C6393B22852244B240A9
:100E70004101E1B1397122DC26DA4AD84ED662CC82
:100E80006AC806DE52D456D25AD05ECE66CA6EC644
:100E90003304A6402A89AE893A8DB384B640054C06
:100EA00063478000014C01C4330480407D5C854C65
:100EB00063479000814C81C4B3048040FD5C228A6A
:100EC00063539400268A014B814A814B930D1A008B
:100ED0006A86CE854A85A29A5137269B63555A0168
:100EE000B38A4A41629963556A01330B4B41E699D3
:100EF000850BE3EFBBFDF2506254D2544259B25914
:100F0000225A925A025BF24B624CD24C424DB24D85
:100F100021618280011122CC3684AE8606CE26CA9B
:100F20004AC84EC652C4AA89328A3A89AE849937D1
:100F30004A87A2864E86A6854E852D3F4A87A28681
:100F40005286A2854E853D37A2866244F240B24960
:100F50004A8752864249A6855285D244224A056173
:100F600011BF3307C6025D71A2C4A6C2CAC056DA59
:100F70005AD886C64EDE52DC5ED662D466D26AD0BD
:100F80006ECEAA8A2E8BB68432840149B3092B41D6
:100F9000B38B8A40CE8526865E853AC6330D5401D2
:100FA000753DCE8526866A85553D338A2A41330CA8
:100FB00064012686E28552855535B30C8B40931D1E
:100FC00019002686E6855285513DEE992686CE8506
:100FD0006A8569353305BA012686E6852AC4BD3D92
:100FE00022452686E2859D3D2686CE855E85BD35D9
:100FF0000509B30729033247B3068402B697635342
:10100000F7007D14E35424F9B6402644964406497B
:10101000F259625AD25A425BB25B225C925C025D28
:10102000F24D616182809307000963E3A70C797137
:1010300026D206D622D44AD04ECE52CC56CA5AC850
:101040005EC693070004AE8463E0B70632840114E1
:10105000B68A130675009386F5001374F40F3709EA
:101060000008AA893A8A1204393E130909246398B0
:101070000A048149B70B0020414BB3878900CA9706
:1010800083CA0700A14493F71A00528599E303A588
:101090008B07FD1493F4F40FEFF03FAA93DA1A00D4
:1010A000FDF08509E39B69FDB25022549254025928
:1010B000F249624AD24A424BB24B456182804A941D
:1010C000138B0401A14B834A0400014993F71A00D2
:1010D00091C75286A685338529014933050993DADC
:1010E0001A00E31579FF85040504E39E64FD6DBFD6
:1010F0008280011152C4416A22CC26CA4AC84EC617
:1011000056C25AC006CE2A84AE843289B689930A62
:101110000009130B0004130A0A808347090099EBA6
:10112000F2406244D2444249B249224A924A024BB6
:101130000561828063F48A00C104014463769B00E8
:101140005285C531814401440346090022854E87FA
:101150008146A685C93D21040509C1B7371501405F
:10116000930600100D4691451305058021A24111FB
:101170001305206006C6552A371501408D460D46D9
:10118000814513050580FD20371702405C43B78673
:10119000001013059060D58F5CC3412A37270140AA
:1011A00083278740B24093E717002324F74041018B
:1011B0008280411106C65D375D3FB24041016FF04C
:1011C0007FA637150140930500101305058089AAF5
:1011D00079714AD04ECE5AC806D622D426D252CCE5
:1011E00056CA5EC662C466C22A8BC52CAA892E89DD
:1011F000ED24AA842E846394A900E30BB9FEB707FB
:10120000002003A9070783A94707B70B0020F12493
:10121000AA87058DB3B7A700818D9D8DEF1040354E
:10122000AA8A03A58B062E8AEF10A02F4A86CE86A7
:10123000EF00900CAA8C5A852E8CEF10802E2A86F7
:10124000AE866685E285EF00D0692A86AE86568531
:10125000D285EF00B05EE34C05FAB25022549254AE
:101260000259F249624AD24A424BB24B224C924C4A
:101270004561828093F7050193F8F50099C3B3E8BF
:10128000C8008147054EBD4E130F8002930F8004A6
:1012900021433316FE00758E1DC21397270083224B
:1012A00005003398EE001348F8FF33785800339761
:1012B000E800336707016399E50550C918C1850740
:1012C000E39967FC054EBD4E130F8002930F800417
:1012D00041433316FE00758E05C61397270001178C
:1012E000832245003398EE001348F8FF3378580006
:1012F0003397E80033670701639CE50150C958C183
:101300008507E39867FC8280E39AF5FB10C97DB7F7
:10131000E397F5FF10C9E5B70CC982804CC98280FC
:1013200008456D8D3335A000828013576500B717CF
:1013300002403E97144385473395A700558D08C357
:101340008280232005002322050023240500232674
:101350000500232A0500232C050082801C410D670F
:1013600013070704D4417D8F9C41D58F9445D58FB9
:10137000D445D58F9449D58FD449D58F944DD58FE9
:10138000D98F1CC15C4D7D771307F77FF98F5CCD3A
:1013900082801C4193E707041CC182804CC5828077
:1013A00048454205418182801C410967D98F1CC193
:1013B0000CC9828008456D8D3335A0008280B71737
:1013C00002409843B706FFE0B1061367170098C3C1
:1013D000D843758FD8C39843B706F7FEFD16758FAF
:1013E00098C39843B706FCFFFD16758F98C3D84382
:1013F000B70601DFFD16758FD8C323A607029843F1
:10140000B706F7EAFD16758F98C33707FF0098C730
:1014100094434167D98E94C39307F7FF371702406F
:1014200014431396E60063440600FD17F5FBB71757
:10143000024098439316E70063C3060001A0D84317
:10144000B706C4DFFD16D8C3D843D8C3D843136743
:101450000740D8C3D843758FD8C3D843B7062920CF
:10146000558FD8C3D857BD76758FD8D7D857C16692
:10147000938616F1558FD8D79843B7060004558F39
:1014800098C3B7170240984393164700E3DD06FE62
:101490009843B7060010558F98C3B717024098437A
:1014A00093162700E3DD06FE9843B7060001558F2B
:1014B00098C3B7170240984393166700E3DD06FE12
:1014C000D843719BD8C3D84313672700D8C33717B5
:1014D00002405C43A18BF5DF8280B70700D1D8437F
:1014E0008843CC43E39DE5FE8280B70700D223808A
:1014F0000700A385070093174500371500D23E95D6
:10150000B71700D263E3A700828023A00700C107BA
:10151000D5BFF327503093F707FC93E7370073905C
:101520005730828000000000000000000000000032
:1015300000000000000000000000000000000000AB
:101540005D7106C012C216C41AC61EC82ACA2ECCA5
:1015500032CE36D03AD23ED442D646D872DA76DC93
:101560007ADEFEC0F322103496C0F322003096C219
:10157000F322407C96C4732520348A85E12086427C
:1015800073901234964273900230A6427390427C5C
:1015900082401242A2423243C2435245E245724661
:1015A00082561257A2573258C258525EE25E725F9C
:1015B000864F616173002030000000005D7106C03D
:1015C00012C216C41AC61EC82ACA2ECC32CE36D0B3
:1015D0003AD23ED442D646D872DA76DC7ADEFEC003
:1015E00073D0E87E7350F97E73D0B97EF390D07ECD
:1015F00073700430B6427390427CA64273901234EA
:1016000096427390223482401242A2423243C24335
:101610005245E245724682561257A2573258C25876
:10162000525EE25E725F864F616173002030B715D3
:1016300000084111154693850584054506C6BD2C55
:1016400005451D204111856722C406C6FD172A8461
:101650006313F500E93FB7150008154693858584A7
:101660000545A92C228509207971B715000822D4D7
:101670007D462A84938505850A8506D6B522794656
:101680008A850945252CA28509450928B715000832
:1016900005469385C5840945152401A079714AD072
:1016A0002E89B715000809469385058722D426D2CE
:1016B0004ECE52CC56CA06D6AA84714401243D4A65
:1016C000A54AF159B3178A00B3F72701B3D78700AA
:1016D00093F7F70F63E9FA0293870703E207E187BD
:1016E00005469305F10026857114A307F100F92240
:1016F000E31A34FDB250225492540259F249624A1C
:10170000D24A4561828093877703C9BFAA85814603
:1017100001460145DDA24111B727000822C406C6D3
:10172000938727982A8499C38145A12CB72700085D
:1017300003A587741C5591C38297228535374111C3
:10174000B727000822C4372400081387C77413047E
:10175000C474198C26C206C609849384C77411E424
:101760002244B2409244410109A67D1493172400FB
:10177000A6979C438297E5B74111B727000822C47A
:10178000372400081387C7741304C474198C26C245
:101790004AC006C6098481441389C77463988402C9
:1017A0007D24B7270008372400081387C774130463
:1017B000C474198C098481441389C774639F84009D
:1017C000B24022449244024941018280939724000E
:1017D000CA979C4385048297D1B793972400CA97F0
:1017E0009C4385048297D9BFB3C7A5008D8BB306F0
:1017F000C50081E78D4763EEC700AA876378D50AE5
:1018000003C7050085078505A38FE7FEE3EAD7FE3A
:10181000828013773500AA8711CB03C7050085079F
:101820008505A38FE7FE13F73700FDB713F7C6FF53
:10183000130607FE63FBC70483A3050083A24500CC
:1018400083AF850003AFC50083AE050103AE45013C
:1018500003A3850183A8C50123A0770023A2570015
:1018600003A8050223A4F70123A6E70123A8D701B3
:1018700023AAC70123AC670023AE17019385450255
:101880009387470223AE07FF75B72E883E866360B5
:10189000E6021388D7FF0146636607010D071D8F17
:1018A0001376C7FFB297B295E3ECD7F48280832812
:1018B000080011061108232E16FFD1BFB70700201C
:1018C000B2862E86AA8503A5C70609A0411122C4A7
:1018D00026C22A842E85B285368606C623A2018AB0
:1018E000752AFD576316F50083A7418A91C31CC072
:1018F000B24022449244410182803708002083276D
:10190000C807AA888DE73707002013050708232E8C
:10191000A8063708000013030800930707086308A8
:101920000300832708002324F50893070708D843FA
:101930007D487D556346E804638D080203A8870847
:101940006300080413152700429510C103230810F3
:1019500005463316E6003363C300232068102320B6
:10196000D50889466397D80083264810558E2322D0
:10197000C810930617000A07D4C3BA978CC701454D
:101980008280797152CC56CA5AC862C406D622D413
:1019900026D24AD04ECE5EC666C2AA8A2E8A370B9F
:1019A0000020054C0324CB07930BCB0711C8444000
:1019B000832984081389F4FF8A04A294635F0900D1
:1019C000B250225492540259F249624AD24A424BCE
:1019D000B24B224C924C45618280630E0A006395A3
:1019E00009007D19F114D9BF93172900CE9783A759
:1019F0000708E39847FF5840DC407D17631827032A
:101A000023222401F9DF832C44006388090083A684
:101A1000091033172C01F98E89EE8297584083A75D
:101A20000B00E31197F9E30EF4FAADBF23A2040013
:101A3000D1BF93162900CE968C4283A64910758F8C
:101A400001E756858297D9BF2E858297C1BF411184
:101A500006C6EFF0DF9613057005EFF01FA9EFF053
:101A60005FABB24041016FE04FFC8280411126C262
:101A7000B744014022C49375F50F2A84138504806E
:101A800006C69384048099289D452685A1286DDD8E
:101A9000B24022852244924441018280011122CC2D
:101AA00026CA4AC84EC606CEB2842E843389C500E3
:101AB000A949631A2401F24062444249B249268589
:101AC000D24405618280034504004D3783470400FA
:101AD000639437013545593F0504E1BF93F5F51F80
:101AE0004CC1828093D7650093F7F73FAA9788434C
:101AF0003355B50005898280797193D7450126D287
:101B00004AD052CC5EC662C49394C50006D622D495
:101B10004ECE56CA5AC8139757012A89B28B368CB3
:101B2000B18013DAF50149C793FAF77F9307F07F85
:101B3000638AFA0C9359D5018E04B3E49900B7096E
:101B40008000B3E9340113143500938A1AC0014BA5
:101B500093574C019314CC0013975701B18093F520
:101B6000F77F135CFC0171C39307F07F638AF51064
:101B70001395340093D7DB015D8DB7048000C98CC9
:101B8000939F3B00138515C0014693172B00D18FFF
:101B9000FD173947B3468A01B385AA406364F7103D
:101BA000371700088A0713074787BA979C4382872D
:101BB000B3E9A400638209069DC82685EF001035AD
:101BC000930755FF71476349F702F549130485FFF1
:101BD000B389F940B3948400B3593901B3E999004A
:101BE000331489009305D0C0B38AA5408DB7EF00A8
:101BF000F03113050502E9B7930485FDB319990087
:101C00000144CDB7B3E9A400638C09002A84A689F6
:101C1000930AF07F0D4B2DBF0144814A054B0DBF48
:101C20000144930AF07F094B25B7B3EF7401638237
:101C30000F069DC82685EF00702DAA85938755FF56
:101C400071476349F702F546938F85FF9D8E339563
:101C5000F401B3D6DB00B3E4A600B39FFB01130786
:101C6000D0C03305B7400DB75E85EF00302A93052D
:101C70000502E9B7138585FDB394AB00814FC5B765
:101C8000B3EF7401638B0F00DE8F1305F07F0D46F9
:101C9000EDBD814401450546CDBD81441305F07F6E
:101CA0000946E5B563E634016396992A6364F42B2B
:101CB0001396F901135714009317F40193D91900DF
:101CC0003364E6001395840093D88F01B3E8A8002D
:101CD000418133D8A902939E080193DE0E01135768
:101CE000040113938F00B3F4A902C28F33860E034D
:101CF0009399040133673701637CC7004697930FBC
:101D0000F8FF636717016375C700930FE8FF4697F5
:101D1000118F335EA702420441803377A702728697
:101D20003388CE034207418F637C07014697130631
:101D3000FEFF63671701637507011306EEFF469701
:101D400033040741C20F4168B3EFCF00130EF8FF11
:101D500013D60F0133F7CF01135F0301337EC301A5
:101D6000B303EE02B304C6033307EF02B302E60384
:101D70003306970013D70301329763739700C2921B
:101D8000135607011696C162FD12337857004208B8
:101D9000B3F353001E986367C400FE84631EC4023D
:101DA00063FC07039A9733B7670046973A94938486
:101DB000FFFF63E688006391880263EF6700636654
:101DC000C400631B860063F907019A9733B7670065
:101DD00046979384EFFF3A9433880741118CB3B749
:101DE00007011D8CFD5F6387880EB35FA402135744
:101DF00008013374A4027E86B387FE034204598C23
:101E0000637CF40046941386FFFF636714016375D7
:101E1000F4001386EFFF46941D8C3357A40242084A
:101E2000135808013374A402BA87B38EEE02420439
:101E300033648800637CD40146949307F7FF63679B
:101E400014016375D4019307E7FF469442065D8E43
:101E500093170601C183135706013308EF023304B9
:101E6000D441330FFF02B38EC703330EC70393D79A
:101E70000E01729FFA9763F4C70141673A9813D72E
:101E80000701429741687D1833F507014205B3FE0B
:101E90000E0176956366E4006310E41AB28F1DC9E3
:101EA0004694930FF6FF636114036366E4006314C2
:101EB000E418637DA3009317130033B367009A9867
:101EC000930FE6FF46943E836314E40063046500C9
:101ED00093EF1F009387F53F635BF00A13F77F00D2
:101EE00001CF13F7FF0011466308C70013864F00A8
:101EF000B33FF601FE94B28F139774006358070046
:101F0000B70700FFFD17FD8C938705401307E07F9F
:101F10006342F70693DF3F001397D4013367F7015D
:101F200013D53400D2073706F07F3205B250225461
:101F3000F18F31815D8DFE06B367D5009254025951
:101F4000F249624AD24A424BB24B224C3A85BE8594
:101F500045618280FD158147B5B3D286CE84A28FBC
:101F60005A868D47630BF60A8547630FF60A894741
:101F7000E312F6F6014501479307F07F65B7E28665
:101F8000CDB7B7040800814F81460D46D9BF05453E
:101F90001D8D130780036349A7087D476349A70484
:101FA0009385E541B397B40033D7AF00B395BF0035
:101FB000D98FB335B000CD8F33D5A40013F7770098
:101FC00001CF13F7F70011466308C70013874700D6
:101FD000B337F7003E95BA871317850063490704A6
:101FE0001317D5018D835D8F0D81814725BF05575F
:101FF000B307F74013060002B3D7F40001476306A6
:10200000C5009385E5433397B400B36FF701B33F41
:10201000F001B3E7F701014555B73705080001475F
:102020009307F07F8146FDBD014501477DBF014516
:1020300001478547C5BD7E86B28F59BD3707100061
:102040007D1713D84501B378B700AA872A83137880
:10205000F87F13D5F501930EF07F93D54601758F68
:10206000328E93F5F57FFD826318D801B3EEF80048
:1020700063840E06094582806396D501B36EC7005E
:10208000E39A0EFE631C0804B3E7F80093B7170049
:1020900099E1598E0DCE81EB6314D50063D905010A
:1020A0000DC57D5582807D5591C6368582806354ED
:1020B000B80065D98280E36517FF639CE800E3619F
:1020C0006EFEE368C3FF0145828005458280E5FF1F
:1020D000C1BFE3E0E8FEC5BFE38205FBD5FD814754
:1020E0004DBF797193D7450122D426D24ECE52CC22
:1020F00056CA9394C50006D64AD05AC85EC61397EE
:1021000057012A84B289B68AB18013DAF50159C31E
:1021100013FBF77F9307F07F6304FB0C9357D50104
:102120008E04DD8CB7078000DD8C13193500130B8E
:102130001BC0814B93D74A011394CA0013975701D0
:10214000318013F5F77F93DAFA014DCF9307F07FD3
:102150006300F51093D7D9010E045D8CB70780009A
:102160005D8C130515C093973900014793962B009A
:10217000D98E5A95FD16394833465A0193051500F4
:102180006369D80E371500088A061305058BAA96D1
:102190009442828633E9A400630D090485C826852C
:1021A000B523130755FFF14763C6E702F547130947
:1021B00085FF998FB3942401B357F400DD8C331954
:1021C0002401130BD0C0330BAB40A5B781231305FB
:1021D0000502C1BF930485FDB31494000149D5B72E
:1021E00033E9A400630B09002A89130BF07F8D4BA0
:1021F00091B78144014B854B35BF8144130BF07F70
:10220000894B0DBFB3673401A1CF05C82285FD29D5
:10221000930655FFF14763C7D7027547930785FFBC
:10222000158F3314F40033D7E900598CB397F900B4
:102230001307D0C03305A7400DBF4E85C129130534
:102240000502F9B7130485FD339489008147CDB7A2
:10225000B367340191CBCE871305F07F0D4739B7B3
:1022600001440145054719B701441305F07F0947AB
:10227000F5BD416F1307FFFF9356090113D3070103
:102280003379E900F98FB30823033308F902B38FD8
:10229000F602B38EF80193580801F698338E660261
:1022A00063F3F8017A9E93D20801B3F8E80033781B
:1022B000E800135F0401C208798CC2983387860254
:1022C0003308890233092F03B30EE90013590801BB
:1022D0007699B386E6036374E9004167BA96935E24
:1022E0000901B69EC166938FF6FF3379F901337801
:1022F000F80113D704014209B3F4F401B383970240
:102300004299CA9233089302B307F702B30FE3026C
:102310003303F80013D803011A986373F800B69FCB
:1023200093570801C166BE9F9387F6FF3378F80084
:10233000B3F7F300B303940242083E9833048702D4
:10234000B3049F023303EF02A29413D70301BA949C
:1023500063F384003693C167FD17B3F6F400C20639
:10236000B3F7F300169EBE9633392E01F6963387E7
:102370002601429E33380E01330FF701B3020F01DD
:10238000B3B6D60133372701558F33B80201C18068
:10239000B33FFF01269733E80F0193179E00429742
:1023A0001A97B3E717012607B337F000135E7E01D3
:1023B00013D47201B3E7C701A60293167700598CB4
:1023C000B3E7570063DA060A13D71700858BD98F56
:1023D0001317F401D98F05809386F53F6350D00A17
:1023E00013F7770001CF13F7F70011456308A70033
:1023F00013874700B337F7003E94BA87131774006A
:1024000063580700370700FF7D17798C93860540D6
:102410001307E07F634ED70E13D737009317D4010D
:10242000D98F0D80139746013204B706F07F758F60
:102430003180598C7E06B2503367C40022549254C6
:102440000259F249624AD24A424BB24B3E85BA85A2
:102450004561828052862684CA875E8789466309E1
:10246000D70A8D46630FD7088546E317D7F6014490
:1024700081479DA05686DDB7AA85B9BF0545158D54
:1024800013078003E345A7FE7D476349A7049385AF
:10249000E5413317B400B3D6A700B397B700558F03
:1024A000B337F000D98F3354A40013F7770001CF6E
:1024B00013F7F70091466308D70013874700B33737
:1024C000F7003E94BA871317840063480704131774
:1024D000D4018D83D98F0D808146A9B70557158FFB
:1024E000130800023357E400814663060501938513
:1024F000E543B316B400D58FB337F000D98F01444C
:102500006DB73704080081479306F07F014619BF75
:10251000014481479306F07F31B7014481478546E6
:1025200011B7411122C406C62A8421C1C52213074E
:10253000E041A947098F63C4A702AD47898F5505BC
:10254000B357F4003314A400B2402285B2072244EA
:102550005207B183B366F700B685410182809307C5
:1025600055FFB317F4000144C5B781470147E9BFE0
:10257000011106CE22CC26CA4AC84EC652C4B36741
:10258000B500638707122A842E89AE84ADC12E85DB
:10259000B52AAA89130AE043330A3A419307304324
:1025A00063C147072D47A287635337031307A00270
:1025B000634337059304B002138759FFB384344152
:1025C000B3549400B315E900CD8CB317E400F24086
:1025D00062449395C400520AB1813367BA00D24471
:1025E0004249B249224A3E85BA8505618280392A2C
:1025F0009309050245B7938559FDB314B40081478B
:10260000F9B79307604363D3470313868903228591
:10261000CA85C1284D8D2146B334A000CA852285C4
:1026200033063641512833E4A4002E892147A2877E
:10263000CA8563543703130770026345370713874E
:1026400089FFB315E9001309800233093941335971
:102650002401B365B900B317E400370780FF7D1785
:10266000F98D13F7770001CF13F7F7009146630850
:10267000D70013874700B337F700BE95BA87139783
:102680008500635A0700370780FF7D17130AF04360
:10269000F98D330A3A418D831395D501C98F93D4AF
:1026A000350035B7938589FDB315B400814775B7FB
:1026B00081448147014A21BF01CE93070002918FD7
:1026C0006349F000130506FE014733D5A500BA851E
:1026D000828033D7C5003355C500B395F5004D8DC5
:1026E000FDB701CE93070002918F6349F000930577
:1026F00006FE0147B315B5003A8582803317C50041
:10270000B395C5003355F500C98DFDB7C167637634
:10271000F5029307F00FB3B7A7008E07371700082D
:10272000930600029D8E3355F5009307C78E3E95A4
:10273000034505003385A640828037070001C14765
:08274000E36EE5FCE147D9BF9F
:042748000800002065
:10274C0054524153484800000000000000000000B3
:10275C00000000000000000000000000000000006D
:10276C00000000000000000000000000000000005D
:10277C00000000000000000000000000000000004D
:10278C00000000000000000000000000000000003D
:10279C00000000000000000000000000000000002D
:1027AC00000000000000000000F36F06080000208D
:0827BC00000000000040AF40E6
:040000050800015C92
:00000001FF
